{
  "_format": "hh-sol-artifact-1",
  "contractName": "PamoonNFT",
  "sourceName": "contracts/pamoonNFT.sol",
  "abi": [
    {
      "inputs": [
        {
          "internalType": "string",
          "name": "name_",
          "type": "string"
        },
        {
          "internalType": "string",
          "name": "symbol_",
          "type": "string"
        }
      ],
      "stateMutability": "nonpayable",
      "type": "constructor"
    },
    {
      "anonymous": false,
      "inputs": [
        {
          "indexed": true,
          "internalType": "address",
          "name": "owner",
          "type": "address"
        },
        {
          "indexed": true,
          "internalType": "address",
          "name": "approved",
          "type": "address"
        },
        {
          "indexed": true,
          "internalType": "uint256",
          "name": "tokenId",
          "type": "uint256"
        }
      ],
      "name": "Approval",
      "type": "event"
    },
    {
      "anonymous": false,
      "inputs": [
        {
          "indexed": true,
          "internalType": "address",
          "name": "owner",
          "type": "address"
        },
        {
          "indexed": true,
          "internalType": "address",
          "name": "operator",
          "type": "address"
        },
        {
          "indexed": false,
          "internalType": "bool",
          "name": "approved",
          "type": "bool"
        }
      ],
      "name": "ApprovalForAll",
      "type": "event"
    },
    {
      "anonymous": false,
      "inputs": [
        {
          "indexed": true,
          "internalType": "address",
          "name": "previousOwner",
          "type": "address"
        },
        {
          "indexed": true,
          "internalType": "address",
          "name": "newOwner",
          "type": "address"
        }
      ],
      "name": "OwnershipTransferred",
      "type": "event"
    },
    {
      "anonymous": false,
      "inputs": [
        {
          "indexed": true,
          "internalType": "address",
          "name": "from",
          "type": "address"
        },
        {
          "indexed": true,
          "internalType": "address",
          "name": "to",
          "type": "address"
        },
        {
          "indexed": true,
          "internalType": "uint256",
          "name": "tokenId",
          "type": "uint256"
        }
      ],
      "name": "Transfer",
      "type": "event"
    },
    {
      "inputs": [
        {
          "internalType": "address",
          "name": "to",
          "type": "address"
        },
        {
          "internalType": "uint256",
          "name": "tokenId",
          "type": "uint256"
        }
      ],
      "name": "approve",
      "outputs": [],
      "stateMutability": "nonpayable",
      "type": "function"
    },
    {
      "inputs": [
        {
          "internalType": "address",
          "name": "owner",
          "type": "address"
        }
      ],
      "name": "balanceOf",
      "outputs": [
        {
          "internalType": "uint256",
          "name": "",
          "type": "uint256"
        }
      ],
      "stateMutability": "view",
      "type": "function"
    },
    {
      "inputs": [
        {
          "internalType": "uint256",
          "name": "tokenId",
          "type": "uint256"
        }
      ],
      "name": "getApproved",
      "outputs": [
        {
          "internalType": "address",
          "name": "",
          "type": "address"
        }
      ],
      "stateMutability": "view",
      "type": "function"
    },
    {
      "inputs": [
        {
          "internalType": "address",
          "name": "owner",
          "type": "address"
        },
        {
          "internalType": "address",
          "name": "operator",
          "type": "address"
        }
      ],
      "name": "isApprovedForAll",
      "outputs": [
        {
          "internalType": "bool",
          "name": "",
          "type": "bool"
        }
      ],
      "stateMutability": "view",
      "type": "function"
    },
    {
      "inputs": [
        {
          "internalType": "address",
          "name": "_to",
          "type": "address"
        },
        {
          "internalType": "uint256",
          "name": "_tokenId",
          "type": "uint256"
        },
        {
          "internalType": "string",
          "name": "_tokenURI",
          "type": "string"
        }
      ],
      "name": "mint",
      "outputs": [
        {
          "internalType": "uint256",
          "name": "",
          "type": "uint256"
        }
      ],
      "stateMutability": "nonpayable",
      "type": "function"
    },
    {
      "inputs": [],
      "name": "name",
      "outputs": [
        {
          "internalType": "string",
          "name": "",
          "type": "string"
        }
      ],
      "stateMutability": "view",
      "type": "function"
    },
    {
      "inputs": [],
      "name": "owner",
      "outputs": [
        {
          "internalType": "address",
          "name": "",
          "type": "address"
        }
      ],
      "stateMutability": "view",
      "type": "function"
    },
    {
      "inputs": [
        {
          "internalType": "uint256",
          "name": "tokenId",
          "type": "uint256"
        }
      ],
      "name": "ownerOf",
      "outputs": [
        {
          "internalType": "address",
          "name": "",
          "type": "address"
        }
      ],
      "stateMutability": "view",
      "type": "function"
    },
    {
      "inputs": [],
      "name": "renounceOwnership",
      "outputs": [],
      "stateMutability": "nonpayable",
      "type": "function"
    },
    {
      "inputs": [
        {
          "internalType": "address",
          "name": "from",
          "type": "address"
        },
        {
          "internalType": "address",
          "name": "to",
          "type": "address"
        },
        {
          "internalType": "uint256",
          "name": "tokenId",
          "type": "uint256"
        }
      ],
      "name": "safeTransferFrom",
      "outputs": [],
      "stateMutability": "nonpayable",
      "type": "function"
    },
    {
      "inputs": [
        {
          "internalType": "address",
          "name": "from",
          "type": "address"
        },
        {
          "internalType": "address",
          "name": "to",
          "type": "address"
        },
        {
          "internalType": "uint256",
          "name": "tokenId",
          "type": "uint256"
        },
        {
          "internalType": "bytes",
          "name": "_data",
          "type": "bytes"
        }
      ],
      "name": "safeTransferFrom",
      "outputs": [],
      "stateMutability": "nonpayable",
      "type": "function"
    },
    {
      "inputs": [
        {
          "internalType": "address",
          "name": "operator",
          "type": "address"
        },
        {
          "internalType": "bool",
          "name": "approved",
          "type": "bool"
        }
      ],
      "name": "setApprovalForAll",
      "outputs": [],
      "stateMutability": "nonpayable",
      "type": "function"
    },
    {
      "inputs": [
        {
          "internalType": "bytes4",
          "name": "interfaceId",
          "type": "bytes4"
        }
      ],
      "name": "supportsInterface",
      "outputs": [
        {
          "internalType": "bool",
          "name": "",
          "type": "bool"
        }
      ],
      "stateMutability": "view",
      "type": "function"
    },
    {
      "inputs": [],
      "name": "symbol",
      "outputs": [
        {
          "internalType": "string",
          "name": "",
          "type": "string"
        }
      ],
      "stateMutability": "view",
      "type": "function"
    },
    {
      "inputs": [
        {
          "internalType": "uint256",
          "name": "tokenId",
          "type": "uint256"
        }
      ],
      "name": "tokenURI",
      "outputs": [
        {
          "internalType": "string",
          "name": "",
          "type": "string"
        }
      ],
      "stateMutability": "view",
      "type": "function"
    },
    {
      "inputs": [
        {
          "internalType": "address",
          "name": "from",
          "type": "address"
        },
        {
          "internalType": "address",
          "name": "to",
          "type": "address"
        },
        {
          "internalType": "uint256",
          "name": "tokenId",
          "type": "uint256"
        }
      ],
      "name": "transferFrom",
      "outputs": [],
      "stateMutability": "nonpayable",
      "type": "function"
    },
    {
      "inputs": [
        {
          "internalType": "address",
          "name": "newOwner",
          "type": "address"
        }
      ],
      "name": "transferOwnership",
      "outputs": [],
      "stateMutability": "nonpayable",
      "type": "function"
    }
  ],
  "bytecode": "0x60806040523480156200001157600080fd5b506040516200360838038062003608833981810160405281019062000037919062000285565b818181600090805190602001906200005192919062000163565b5080600190805190602001906200006a92919062000163565b5050506200008d620000816200009560201b60201c565b6200009d60201b60201c565b505062000468565b600033905090565b6000600760009054906101000a900473ffffffffffffffffffffffffffffffffffffffff16905081600760006101000a81548173ffffffffffffffffffffffffffffffffffffffff021916908373ffffffffffffffffffffffffffffffffffffffff1602179055508173ffffffffffffffffffffffffffffffffffffffff168173ffffffffffffffffffffffffffffffffffffffff167f8be0079c531659141344cd1fd0a4f28419497f9722a3daafe3b4186f6b6457e060405160405180910390a35050565b82805462000171906200038d565b90600052602060002090601f016020900481019282620001955760008555620001e1565b82601f10620001b057805160ff1916838001178555620001e1565b82800160010185558215620001e1579182015b82811115620001e0578251825591602001919060010190620001c3565b5b509050620001f09190620001f4565b5090565b5b808211156200020f576000816000905550600101620001f5565b5090565b60006200022a620002248462000321565b620002f8565b9050828152602081018484840111156200024357600080fd5b6200025084828562000357565b509392505050565b600082601f8301126200026a57600080fd5b81516200027c84826020860162000213565b91505092915050565b600080604083850312156200029957600080fd5b600083015167ffffffffffffffff811115620002b457600080fd5b620002c28582860162000258565b925050602083015167ffffffffffffffff811115620002e057600080fd5b620002ee8582860162000258565b9150509250929050565b60006200030462000317565b9050620003128282620003c3565b919050565b6000604051905090565b600067ffffffffffffffff8211156200033f576200033e62000428565b5b6200034a8262000457565b9050602081019050919050565b60005b83811015620003775780820151818401526020810190506200035a565b8381111562000387576000848401525b50505050565b60006002820490506001821680620003a657607f821691505b60208210811415620003bd57620003bc620003f9565b5b50919050565b620003ce8262000457565b810181811067ffffffffffffffff82111715620003f057620003ef62000428565b5b80604052505050565b7f4e487b7100000000000000000000000000000000000000000000000000000000600052602260045260246000fd5b7f4e487b7100000000000000000000000000000000000000000000000000000000600052604160045260246000fd5b6000601f19601f8301169050919050565b61319080620004786000396000f3fe608060405234801561001057600080fd5b506004361061010b5760003560e01c8063715018a6116100a2578063b88d4fde11610071578063b88d4fde146102a4578063c87b56dd146102c0578063d3fc9864146102f0578063e985e9c514610320578063f2fde38b146103505761010b565b8063715018a6146102425780638da5cb5b1461024c57806395d89b411461026a578063a22cb465146102885761010b565b806323b872dd116100de57806323b872dd146101aa57806342842e0e146101c65780636352211e146101e257806370a08231146102125761010b565b806301ffc9a71461011057806306fdde0314610140578063081812fc1461015e578063095ea7b31461018e575b600080fd5b61012a60048036038101906101259190612170565b61036c565b60405161013791906125bc565b60405180910390f35b61014861044e565b60405161015591906125d7565b60405180910390f35b610178600480360381019061017391906121c2565b6104e0565b6040516101859190612555565b60405180910390f35b6101a860048036038101906101a391906120c8565b610565565b005b6101c460048036038101906101bf9190611fc2565b61067d565b005b6101e060048036038101906101db9190611fc2565b6106dd565b005b6101fc60048036038101906101f791906121c2565b6106fd565b6040516102099190612555565b60405180910390f35b61022c60048036038101906102279190611f5d565b6107af565b6040516102399190612839565b60405180910390f35b61024a610867565b005b6102546108ef565b6040516102619190612555565b60405180910390f35b610272610919565b60405161027f91906125d7565b60405180910390f35b6102a2600480360381019061029d919061208c565b6109ab565b005b6102be60048036038101906102b99190612011565b6109c1565b005b6102da60048036038101906102d591906121c2565b610a23565b6040516102e791906125d7565b60405180910390f35b61030a60048036038101906103059190612104565b610b75565b6040516103179190612839565b60405180910390f35b61033a60048036038101906103359190611f86565b610c56565b60405161034791906125bc565b60405180910390f35b61036a60048036038101906103659190611f5d565b610cea565b005b60007f80ac58cd000000000000000000000000000000000000000000000000000000007bffffffffffffffffffffffffffffffffffffffffffffffffffffffff1916827bffffffffffffffffffffffffffffffffffffffffffffffffffffffff1916148061043757507f5b5e139f000000000000000000000000000000000000000000000000000000007bffffffffffffffffffffffffffffffffffffffffffffffffffffffff1916827bffffffffffffffffffffffffffffffffffffffffffffffffffffffff1916145b80610447575061044682610de2565b5b9050919050565b60606000805461045d90612a5e565b80601f016020809104026020016040519081016040528092919081815260200182805461048990612a5e565b80156104d65780601f106104ab576101008083540402835291602001916104d6565b820191906000526020600020905b8154815290600101906020018083116104b957829003601f168201915b5050505050905090565b60006104eb82610e4c565b61052a576040517f08c379a0000000000000000000000000000000000000000000000000000000008152600401610521906127b9565b60405180910390fd5b6004600083815260200190815260200160002060009054906101000a900473ffffffffffffffffffffffffffffffffffffffff169050919050565b6000610570826106fd565b90508073ffffffffffffffffffffffffffffffffffffffff168373ffffffffffffffffffffffffffffffffffffffff1614156105e1576040517f08c379a00000000000000000000000000000000000000000000000000000000081526004016105d890612679565b60405180910390fd5b8073ffffffffffffffffffffffffffffffffffffffff16610600610eb8565b73ffffffffffffffffffffffffffffffffffffffff16148061062f575061062e81610629610eb8565b610c56565b5b61066e576040517f08c379a0000000000000000000000000000000000000000000000000000000008152600401610665906127d9565b60405180910390fd5b6106788383610ec0565b505050565b61068e610688610eb8565b82610f79565b6106cd576040517f08c379a00000000000000000000000000000000000000000000000000000000081526004016106c490612759565b60405180910390fd5b6106d8838383611057565b505050565b6106f8838383604051806020016040528060008152506109c1565b505050565b6000806002600084815260200190815260200160002060009054906101000a900473ffffffffffffffffffffffffffffffffffffffff169050600073ffffffffffffffffffffffffffffffffffffffff168173ffffffffffffffffffffffffffffffffffffffff1614156107a6576040517f08c379a000000000000000000000000000000000000000000000000000000000815260040161079d906126f9565b60405180910390fd5b80915050919050565b60008073ffffffffffffffffffffffffffffffffffffffff168273ffffffffffffffffffffffffffffffffffffffff161415610820576040517f08c379a000000000000000000000000000000000000000000000000000000000815260040161081790612799565b60405180910390fd5b600360008373ffffffffffffffffffffffffffffffffffffffff1673ffffffffffffffffffffffffffffffffffffffff168152602001908152602001600020549050919050565b61086f610eb8565b73ffffffffffffffffffffffffffffffffffffffff1661088d6108ef565b73ffffffffffffffffffffffffffffffffffffffff16146108e3576040517f08c379a00000000000000000000000000000000000000000000000000000000081526004016108da90612779565b60405180910390fd5b6108ed60006112be565b565b6000600760009054906101000a900473ffffffffffffffffffffffffffffffffffffffff16905090565b60606001805461092890612a5e565b80601f016020809104026020016040519081016040528092919081815260200182805461095490612a5e565b80156109a15780601f10610976576101008083540402835291602001916109a1565b820191906000526020600020905b81548152906001019060200180831161098457829003601f168201915b5050505050905090565b6109bd6109b6610eb8565b8383611384565b5050565b6109d26109cc610eb8565b83610f79565b610a11576040517f08c379a0000000000000000000000000000000000000000000000000000000008152600401610a0890612759565b60405180910390fd5b610a1d848484846114f1565b50505050565b6060610a2e82610e4c565b610a6d576040517f08c379a0000000000000000000000000000000000000000000000000000000008152600401610a64906126d9565b60405180910390fd5b6000600660008481526020019081526020016000208054610a8d90612a5e565b80601f0160208091040260200160405190810160405280929190818152602001828054610ab990612a5e565b8015610b065780601f10610adb57610100808354040283529160200191610b06565b820191906000526020600020905b815481529060010190602001808311610ae957829003601f168201915b505050505090506000610b17611560565b9050600081511415610b2d578192505050610b70565b600082511115610b62578082604051602001610b4a929190612531565b60405160208183030381529060405292505050610b70565b610b6b84611577565b925050505b919050565b6000610b7f610eb8565b73ffffffffffffffffffffffffffffffffffffffff16610b9d6108ef565b73ffffffffffffffffffffffffffffffffffffffff1614610bf3576040517f08c379a0000000000000000000000000000000000000000000000000000000008152600401610bea90612779565b60405180910390fd5b610bfd858561161e565b610c4b8484848080601f016020809104026020016040519081016040528093929190818152602001838380828437600081840152601f19601f8201169050808301925050505050505061163c565b839050949350505050565b6000600560008473ffffffffffffffffffffffffffffffffffffffff1673ffffffffffffffffffffffffffffffffffffffff16815260200190815260200160002060008373ffffffffffffffffffffffffffffffffffffffff1673ffffffffffffffffffffffffffffffffffffffff16815260200190815260200160002060009054906101000a900460ff16905092915050565b610cf2610eb8565b73ffffffffffffffffffffffffffffffffffffffff16610d106108ef565b73ffffffffffffffffffffffffffffffffffffffff1614610d66576040517f08c379a0000000000000000000000000000000000000000000000000000000008152600401610d5d90612779565b60405180910390fd5b600073ffffffffffffffffffffffffffffffffffffffff168173ffffffffffffffffffffffffffffffffffffffff161415610dd6576040517f08c379a0000000000000000000000000000000000000000000000000000000008152600401610dcd90612639565b60405180910390fd5b610ddf816112be565b50565b60007f01ffc9a7000000000000000000000000000000000000000000000000000000007bffffffffffffffffffffffffffffffffffffffffffffffffffffffff1916827bffffffffffffffffffffffffffffffffffffffffffffffffffffffff1916149050919050565b60008073ffffffffffffffffffffffffffffffffffffffff166002600084815260200190815260200160002060009054906101000a900473ffffffffffffffffffffffffffffffffffffffff1673ffffffffffffffffffffffffffffffffffffffff1614159050919050565b600033905090565b816004600083815260200190815260200160002060006101000a81548173ffffffffffffffffffffffffffffffffffffffff021916908373ffffffffffffffffffffffffffffffffffffffff160217905550808273ffffffffffffffffffffffffffffffffffffffff16610f33836106fd565b73ffffffffffffffffffffffffffffffffffffffff167f8c5be1e5ebec7d5bd14f71427d1e84f3dd0314c0f7b2291e5b200ac8c7c3b92560405160405180910390a45050565b6000610f8482610e4c565b610fc3576040517f08c379a0000000000000000000000000000000000000000000000000000000008152600401610fba90612819565b60405180910390fd5b6000610fce836106fd565b90508073ffffffffffffffffffffffffffffffffffffffff168473ffffffffffffffffffffffffffffffffffffffff161480611010575061100f8185610c56565b5b8061104e57508373ffffffffffffffffffffffffffffffffffffffff16611036846104e0565b73ffffffffffffffffffffffffffffffffffffffff16145b91505092915050565b8273ffffffffffffffffffffffffffffffffffffffff16611077826106fd565b73ffffffffffffffffffffffffffffffffffffffff16146110cd576040517f08c379a00000000000000000000000000000000000000000000000000000000081526004016110c490612699565b60405180910390fd5b600073ffffffffffffffffffffffffffffffffffffffff168273ffffffffffffffffffffffffffffffffffffffff16141561113d576040517f08c379a000000000000000000000000000000000000000000000000000000000815260040161113490612659565b60405180910390fd5b6111488383836116b0565b611153600082610ec0565b6001600360008573ffffffffffffffffffffffffffffffffffffffff1673ffffffffffffffffffffffffffffffffffffffff16815260200190815260200160002060008282546111a39190612974565b925050819055506001600360008473ffffffffffffffffffffffffffffffffffffffff1673ffffffffffffffffffffffffffffffffffffffff16815260200190815260200160002060008282546111fa91906128ed565b92505081905550816002600083815260200190815260200160002060006101000a81548173ffffffffffffffffffffffffffffffffffffffff021916908373ffffffffffffffffffffffffffffffffffffffff160217905550808273ffffffffffffffffffffffffffffffffffffffff168473ffffffffffffffffffffffffffffffffffffffff167fddf252ad1be2c89b69c2b068fc378daa952ba7f163c4a11628f55a4df523b3ef60405160405180910390a46112b98383836116b5565b505050565b6000600760009054906101000a900473ffffffffffffffffffffffffffffffffffffffff16905081600760006101000a81548173ffffffffffffffffffffffffffffffffffffffff021916908373ffffffffffffffffffffffffffffffffffffffff1602179055508173ffffffffffffffffffffffffffffffffffffffff168173ffffffffffffffffffffffffffffffffffffffff167f8be0079c531659141344cd1fd0a4f28419497f9722a3daafe3b4186f6b6457e060405160405180910390a35050565b8173ffffffffffffffffffffffffffffffffffffffff168373ffffffffffffffffffffffffffffffffffffffff1614156113f3576040517f08c379a00000000000000000000000000000000000000000000000000000000081526004016113ea90612739565b60405180910390fd5b80600560008573ffffffffffffffffffffffffffffffffffffffff1673ffffffffffffffffffffffffffffffffffffffff16815260200190815260200160002060008473ffffffffffffffffffffffffffffffffffffffff1673ffffffffffffffffffffffffffffffffffffffff16815260200190815260200160002060006101000a81548160ff0219169083151502179055508173ffffffffffffffffffffffffffffffffffffffff168373ffffffffffffffffffffffffffffffffffffffff167f17307eab39ab6107e8899845ad3d59bd9653f200f220920489ca2b5937696c31836040516114e491906125bc565b60405180910390a3505050565b6114fc848484611057565b611508848484846116ba565b8061151b575061151a84848484611820565b5b61155a576040517f08c379a000000000000000000000000000000000000000000000000000000000815260040161155190612719565b60405180910390fd5b50505050565b606060405180602001604052806000815250905090565b606061158282610e4c565b6115c1576040517f08c379a00000000000000000000000000000000000000000000000000000000081526004016115b890612619565b60405180910390fd5b60006115cb611560565b905060008151116115eb5760405180602001604052806000815250611616565b806115f584611986565b604051602001611606929190612531565b6040516020818303038152906040525b915050919050565b611638828260405180602001604052806000815250611b33565b5050565b61164582610e4c565b611684576040517f08c379a000000000000000000000000000000000000000000000000000000000815260040161167b906125f9565b60405180910390fd5b806006600084815260200190815260200160002090805190602001906116ab929190611d9f565b505050565b505050565b505050565b60006116db8473ffffffffffffffffffffffffffffffffffffffff16611ba2565b15611813578373ffffffffffffffffffffffffffffffffffffffff16636745782b611704610eb8565b8786866040518563ffffffff1660e01b81526004016117269493929190612570565b602060405180830381600087803b15801561174057600080fd5b505af192505050801561177157506040513d601f19601f8201168201806040525081019061176e9190612199565b60015b6117c3573d80600081146117a1576040519150601f19603f3d011682016040523d82523d6000602084013e6117a6565b606091505b506000815114156117bb576000915050611818565b805181602001fd5b636745782b60e01b7bffffffffffffffffffffffffffffffffffffffffffffffffffffffff1916817bffffffffffffffffffffffffffffffffffffffffffffffffffffffff191614915050611818565b600190505b949350505050565b60006118418473ffffffffffffffffffffffffffffffffffffffff16611ba2565b15611979578373ffffffffffffffffffffffffffffffffffffffff1663150b7a0261186a610eb8565b8786866040518563ffffffff1660e01b815260040161188c9493929190612570565b602060405180830381600087803b1580156118a657600080fd5b505af19250505080156118d757506040513d601f19601f820116820180604052508101906118d49190612199565b60015b611929573d8060008114611907576040519150601f19603f3d011682016040523d82523d6000602084013e61190c565b606091505b5060008151141561192157600091505061197e565b805181602001fd5b63150b7a0260e01b7bffffffffffffffffffffffffffffffffffffffffffffffffffffffff1916817bffffffffffffffffffffffffffffffffffffffffffffffffffffffff19161491505061197e565b600190505b949350505050565b606060008214156119ce576040518060400160405280600181526020017f30000000000000000000000000000000000000000000000000000000000000008152509050611b2e565b600082905060005b60008214611a005780806119e990612ac1565b915050600a826119f99190612943565b91506119d6565b60008167ffffffffffffffff811115611a42577f4e487b7100000000000000000000000000000000000000000000000000000000600052604160045260246000fd5b6040519080825280601f01601f191660200182016040528015611a745781602001600182028036833780820191505090505b5090505b60008514611b2757600182611a8d9190612974565b9150600a85611a9c9190612b0a565b6030611aa891906128ed565b60f81b818381518110611ae4577f4e487b7100000000000000000000000000000000000000000000000000000000600052603260045260246000fd5b60200101907effffffffffffffffffffffffffffffffffffffffffffffffffffffffffffff1916908160001a905350600a85611b209190612943565b9450611a78565b8093505050505b919050565b611b3d8383611bc5565b611b4a60008484846116ba565b80611b5e5750611b5d6000848484611820565b5b611b9d576040517f08c379a0000000000000000000000000000000000000000000000000000000008152600401611b9490612719565b60405180910390fd5b505050565b6000808273ffffffffffffffffffffffffffffffffffffffff163b119050919050565b600073ffffffffffffffffffffffffffffffffffffffff168273ffffffffffffffffffffffffffffffffffffffff161415611c35576040517f08c379a0000000000000000000000000000000000000000000000000000000008152600401611c2c906126b9565b60405180910390fd5b611c3e81610e4c565b15611c7e576040517f08c379a0000000000000000000000000000000000000000000000000000000008152600401611c75906127f9565b60405180910390fd5b611c8a600083836116b0565b6001600360008473ffffffffffffffffffffffffffffffffffffffff1673ffffffffffffffffffffffffffffffffffffffff1681526020019081526020016000206000828254611cda91906128ed565b92505081905550816002600083815260200190815260200160002060006101000a81548173ffffffffffffffffffffffffffffffffffffffff021916908373ffffffffffffffffffffffffffffffffffffffff160217905550808273ffffffffffffffffffffffffffffffffffffffff16600073ffffffffffffffffffffffffffffffffffffffff167fddf252ad1be2c89b69c2b068fc378daa952ba7f163c4a11628f55a4df523b3ef60405160405180910390a4611d9b600083836116b5565b5050565b828054611dab90612a5e565b90600052602060002090601f016020900481019282611dcd5760008555611e14565b82601f10611de657805160ff1916838001178555611e14565b82800160010185558215611e14579182015b82811115611e13578251825591602001919060010190611df8565b5b509050611e219190611e25565b5090565b5b80821115611e3e576000816000905550600101611e26565b5090565b6000611e55611e5084612879565b612854565b905082815260208101848484011115611e6d57600080fd5b611e78848285612a1c565b509392505050565b600081359050611e8f816130fe565b92915050565b600081359050611ea481613115565b92915050565b600081359050611eb98161312c565b92915050565b600081519050611ece8161312c565b92915050565b600082601f830112611ee557600080fd5b8135611ef5848260208601611e42565b91505092915050565b60008083601f840112611f1057600080fd5b8235905067ffffffffffffffff811115611f2957600080fd5b602083019150836001820283011115611f4157600080fd5b9250929050565b600081359050611f5781613143565b92915050565b600060208284031215611f6f57600080fd5b6000611f7d84828501611e80565b91505092915050565b60008060408385031215611f9957600080fd5b6000611fa785828601611e80565b9250506020611fb885828601611e80565b9150509250929050565b600080600060608486031215611fd757600080fd5b6000611fe586828701611e80565b9350506020611ff686828701611e80565b925050604061200786828701611f48565b9150509250925092565b6000806000806080858703121561202757600080fd5b600061203587828801611e80565b945050602061204687828801611e80565b935050604061205787828801611f48565b925050606085013567ffffffffffffffff81111561207457600080fd5b61208087828801611ed4565b91505092959194509250565b6000806040838503121561209f57600080fd5b60006120ad85828601611e80565b92505060206120be85828601611e95565b9150509250929050565b600080604083850312156120db57600080fd5b60006120e985828601611e80565b92505060206120fa85828601611f48565b9150509250929050565b6000806000806060858703121561211a57600080fd5b600061212887828801611e80565b945050602061213987828801611f48565b935050604085013567ffffffffffffffff81111561215657600080fd5b61216287828801611efe565b925092505092959194509250565b60006020828403121561218257600080fd5b600061219084828501611eaa565b91505092915050565b6000602082840312156121ab57600080fd5b60006121b984828501611ebf565b91505092915050565b6000602082840312156121d457600080fd5b60006121e284828501611f48565b91505092915050565b6121f4816129a8565b82525050565b612203816129ba565b82525050565b6000612214826128aa565b61221e81856128c0565b935061222e818560208601612a2b565b61223781612bf7565b840191505092915050565b600061224d826128b5565b61225781856128d1565b9350612267818560208601612a2b565b61227081612bf7565b840191505092915050565b6000612286826128b5565b61229081856128e2565b93506122a0818560208601612a2b565b80840191505092915050565b60006122b9602d836128d1565b91506122c482612c08565b604082019050919050565b60006122dc602e836128d1565b91506122e782612c57565b604082019050919050565b60006122ff6026836128d1565b915061230a82612ca6565b604082019050919050565b60006123226023836128d1565b915061232d82612cf5565b604082019050919050565b60006123456020836128d1565b915061235082612d44565b602082019050919050565b60006123686024836128d1565b915061237382612d6d565b604082019050919050565b600061238b601f836128d1565b915061239682612dbc565b602082019050919050565b60006123ae6030836128d1565b91506123b982612de5565b604082019050919050565b60006123d16028836128d1565b91506123dc82612e34565b604082019050919050565b60006123f46041836128d1565b91506123ff82612e83565b606082019050919050565b60006124176018836128d1565b915061242282612ef8565b602082019050919050565b600061243a6030836128d1565b915061244582612f21565b604082019050919050565b600061245d6020836128d1565b915061246882612f70565b602082019050919050565b60006124806028836128d1565b915061248b82612f99565b604082019050919050565b60006124a3602b836128d1565b91506124ae82612fe8565b604082019050919050565b60006124c66037836128d1565b91506124d182613037565b604082019050919050565b60006124e9601b836128d1565b91506124f482613086565b602082019050919050565b600061250c602b836128d1565b9150612517826130af565b604082019050919050565b61252b81612a12565b82525050565b600061253d828561227b565b9150612549828461227b565b91508190509392505050565b600060208201905061256a60008301846121eb565b92915050565b600060808201905061258560008301876121eb565b61259260208301866121eb565b61259f6040830185612522565b81810360608301526125b18184612209565b905095945050505050565b60006020820190506125d160008301846121fa565b92915050565b600060208201905081810360008301526125f18184612242565b905092915050565b60006020820190508181036000830152612612816122ac565b9050919050565b60006020820190508181036000830152612632816122cf565b9050919050565b60006020820190508181036000830152612652816122f2565b9050919050565b6000602082019050818103600083015261267281612315565b9050919050565b6000602082019050818103600083015261269281612338565b9050919050565b600060208201905081810360008301526126b28161235b565b9050919050565b600060208201905081810360008301526126d28161237e565b9050919050565b600060208201905081810360008301526126f2816123a1565b9050919050565b60006020820190508181036000830152612712816123c4565b9050919050565b60006020820190508181036000830152612732816123e7565b9050919050565b600060208201905081810360008301526127528161240a565b9050919050565b600060208201905081810360008301526127728161242d565b9050919050565b6000602082019050818103600083015261279281612450565b9050919050565b600060208201905081810360008301526127b281612473565b9050919050565b600060208201905081810360008301526127d281612496565b9050919050565b600060208201905081810360008301526127f2816124b9565b9050919050565b60006020820190508181036000830152612812816124dc565b9050919050565b60006020820190508181036000830152612832816124ff565b9050919050565b600060208201905061284e6000830184612522565b92915050565b600061285e61286f565b905061286a8282612a90565b919050565b6000604051905090565b600067ffffffffffffffff82111561289457612893612bc8565b5b61289d82612bf7565b9050602081019050919050565b600081519050919050565b600081519050919050565b600082825260208201905092915050565b600082825260208201905092915050565b600081905092915050565b60006128f882612a12565b915061290383612a12565b9250827fffffffffffffffffffffffffffffffffffffffffffffffffffffffffffffffff0382111561293857612937612b3b565b5b828201905092915050565b600061294e82612a12565b915061295983612a12565b92508261296957612968612b6a565b5b828204905092915050565b600061297f82612a12565b915061298a83612a12565b92508282101561299d5761299c612b3b565b5b828203905092915050565b60006129b3826129f2565b9050919050565b60008115159050919050565b60007fffffffff0000000000000000000000000000000000000000000000000000000082169050919050565b600073ffffffffffffffffffffffffffffffffffffffff82169050919050565b6000819050919050565b82818337600083830152505050565b60005b83811015612a49578082015181840152602081019050612a2e565b83811115612a58576000848401525b50505050565b60006002820490506001821680612a7657607f821691505b60208210811415612a8a57612a89612b99565b5b50919050565b612a9982612bf7565b810181811067ffffffffffffffff82111715612ab857612ab7612bc8565b5b80604052505050565b6000612acc82612a12565b91507fffffffffffffffffffffffffffffffffffffffffffffffffffffffffffffffff821415612aff57612afe612b3b565b5b600182019050919050565b6000612b1582612a12565b9150612b2083612a12565b925082612b3057612b2f612b6a565b5b828206905092915050565b7f4e487b7100000000000000000000000000000000000000000000000000000000600052601160045260246000fd5b7f4e487b7100000000000000000000000000000000000000000000000000000000600052601260045260246000fd5b7f4e487b7100000000000000000000000000000000000000000000000000000000600052602260045260246000fd5b7f4e487b7100000000000000000000000000000000000000000000000000000000600052604160045260246000fd5b6000601f19601f8301169050919050565b7f4b4950313755524953746f726167653a2055524920736574206f66206e6f6e6560008201527f78697374656e7420746f6b656e00000000000000000000000000000000000000602082015250565b7f4b495031374d657461646174613a2055524920717565727920666f72206e6f6e60008201527f6578697374656e7420746f6b656e000000000000000000000000000000000000602082015250565b7f4f776e61626c653a206e6577206f776e657220697320746865207a65726f206160008201527f6464726573730000000000000000000000000000000000000000000000000000602082015250565b7f4b495031373a207472616e7366657220746f20746865207a65726f206164647260008201527f6573730000000000000000000000000000000000000000000000000000000000602082015250565b7f4b495031373a20617070726f76616c20746f2063757272656e74206f776e6572600082015250565b7f4b495031373a207472616e736665722066726f6d20696e636f7272656374206f60008201527f776e657200000000000000000000000000000000000000000000000000000000602082015250565b7f4b495031373a206d696e7420746f20746865207a65726f206164647265737300600082015250565b7f4b4950313755524953746f726167653a2055524920717565727920666f72206e60008201527f6f6e6578697374656e7420746f6b656e00000000000000000000000000000000602082015250565b7f4b495031373a206f776e657220717565727920666f72206e6f6e65786973746560008201527f6e7420746f6b656e000000000000000000000000000000000000000000000000602082015250565b7f4b495031373a207472616e7366657220746f206e6f6e20494b4950313752656360008201527f65697665722f49455243373231526563656976657220696d706c656d656e746560208201527f7200000000000000000000000000000000000000000000000000000000000000604082015250565b7f4b495031373a20617070726f766520746f2063616c6c65720000000000000000600082015250565b7f4b495031373a207472616e736665722063616c6c6572206973206e6f74206f7760008201527f6e6572206e6f7220617070726f76656400000000000000000000000000000000602082015250565b7f4f776e61626c653a2063616c6c6572206973206e6f7420746865206f776e6572600082015250565b7f4b495031373a2061646472657373207a65726f206973206e6f7420612076616c60008201527f6964206f776e6572000000000000000000000000000000000000000000000000602082015250565b7f4b495031373a20617070726f76656420717565727920666f72206e6f6e65786960008201527f7374656e7420746f6b656e000000000000000000000000000000000000000000602082015250565b7f4b495031373a20617070726f76652063616c6c6572206973206e6f74206f776e60008201527f6572206e6f7220617070726f76656420666f7220616c6c000000000000000000602082015250565b7f4b495031373a20746f6b656e20616c7265616479206d696e7465640000000000600082015250565b7f4b495031373a206f70657261746f7220717565727920666f72206e6f6e65786960008201527f7374656e7420746f6b656e000000000000000000000000000000000000000000602082015250565b613107816129a8565b811461311257600080fd5b50565b61311e816129ba565b811461312957600080fd5b50565b613135816129c6565b811461314057600080fd5b50565b61314c81612a12565b811461315757600080fd5b5056fea264697066735822122080d8a7f43ff0851aecce28cb973587c767519adf5fec433552db94195f11e53964736f6c63430008010033",
  "linkReferences": {},
  "deployedLinkReferences": {}
}